:020000040800F2
:1000000080110020890A0008712C0008750A000878
:10001000750A0008750A0008750A0008000000004B
:10002000000000000000000000000000490B000874
:10003000750A000800000000E90A00089519000888
:10004000D10C0008D10C0008D10C0008D10C00081C
:10005000D10C0008D10C0008D10C0008D10C00080C
:10006000D10C0008D10C0008D10C0008D10C0008FC
:10007000D10C0008D10C0008D10C0008D10C0008EC
:10008000D10C0008D10C0008D10C0008D10C0008DC
:10009000D10C0008D10C0008D10C0008D10C0008CC
:1000A000D10C0008D10C0008D10C0008D10C0008BC
:1000B000D10C0008D10C0008D10C0008D10C0008AC
:1000C000D10C0008D10C0008D10C0008D10C00089C
:1000D000D10C0008D10C0008D10C0008D10C00088C
:1000E000D10C0008D10C0008D10C0008D10C00087C
:1000F000D10C0008D10C0008D10C0008D10C00086C
:10010000D10C0008D10C0008D10C0008D10C00085B
:10011000D10C0008D10C0008D10C0008D10C00084B
:10012000D10C0008D10C0008D10C0008D10C00083B
:10013000D10C0008D10C0008D10C0008D10C00082B
:10014000D10C0008D10C0008D10C0008D10C00081B
:10015000D10C0008D10C0008D10C0008D10C00080B
:10016000D10C0008D10C0008D10C0008D10C0008FB
:10017000D10C0008D10C0008D10C0008D10C0008EB
:10018000D10C0008D10C0008D10C0008D10C0008DB
:10019000D10C0008D10C0008D10C0008D10C0008CB
:1001A000D10C0008D10C0008D10C0008D10C0008BB
:1001B000D10C0008D10C0008D10C0008D10C0008AB
:0401C000D10C000856
:1001C40053B94AB9002908BF00281CBF4FF0FF31BA
:1001D4004FF0FF3000F00CB8ADF1080C6DE904CE1F
:1001E40000F008F8DDF804E0DDE9022304B070470C
:1001F400704700BF2DE9F04786468C460846089EA6
:10020400154674461946002B40F0C2808542B2FA66
:1002140082F245D94AB1C2F1200300FA02FC2EFA57
:1002240003F3954043EA0C0C94404FEA154EA8B2F0
:10023400BCFBFEF8230C0EFB18CC08FB00F943EAC8
:100244000C43994528D9EB1808F1FF3704D2994596
:1002540002D9A8F102072B44A3EB0903A4B2B3FB10
:10026400FEFC0EFB1C330CFB00F044EA0344A042EA
:1002740014D92C190CF1FF3304D2A04202D9ACF1E9
:1002840002032C44241A43EA07401EB1D44000233D
:1002940034607360BDE8F0874746DDE76346F1E705
:1002A40092BB431B01214FEA154EAFB2B3FBFEFCD8
:1002B400200C0EFB1C330CFB07F840EA0343984563
:1002C40062D9EB180CF1FF3004D2984502D9ACF195
:1002D40002002B44A3EB0803A4B2B3FBFEFC0EFB09
:1002E4001C330CFB07F744EA0344A7424ED92C19EC
:1002F4000CF1FF3304D2A74202D9ACF102032C441F
:10030400E41B43EA0040C0E7C2F1200320FA03F1F2
:10031400954090402EFA03F303434FEA154EAFB2D3
:10032400B1FBFEFC0EFB1C10190C0CFB07F841EA98
:100334000041884504FA02F422D969180CF1FF300F
:1003440004D2884502D9ACF102002944A1EB08018A
:100354009BB2B1FBFEFC0EFB1C110CFB07F743EA3E
:1003640001439F420ED9EB180CF1FF3104D29F4296
:1003740002D9ACF102012B44DB1B41EA004192E7B4
:100384006046E3E76146F7E76046A3E76346B7E7FD
:10039400834206D916B9002108467BE7C6E900E086
:1003A400F9E7B3FA83F78FB9834201D3724508D8CA
:1003B400BEEB020460EB030301209C461EB900213E
:1003C40068E73846FAE7C6E9004CF8E7C7F1200CBD
:1003D400BB4022FA0CF41C432EFA0CF120FA0CF365
:1003E400B84001434FEA14490EFA07F5B3FBF9F894
:1003F4001FFA84FE09FB18300B0C08FB0EFA43EAC3
:1004040000439A4502FA07F240D9E31808F1FF3095
:1004140004D29A4502D9A8F102002344A3EB0A03AB
:1004240089B2B3FBF9F809FB183308FB0EFE41EA65
:1004340003418E452CD9611808F1FF3304D28E454F
:1004440002D9A8F10203214443EA0040A0FB029828
:10045400A1EB0E014145CE46434602D306D14D459C
:1004640004D2B9EB020E68EB04030138002EA6D0C7
:10047400B5EB0E0261EB030101FA0CFC22FA07F35F
:100484004CEA0303F940C6E9003198E74046C5E762
:100494004346D9E7014B1B68184700BF0000002002
:1004A400014B1860704700BF0000002030B585B0D4
:1004B40004460D4610220021684603F062F8022328
:1004C4008DF802302A46044B01932146684602F017
:1004D400EFF805B030BD00BF9904000880B50546AB
:1004E4000E461746984601F093FE034603F0B4F80F
:1004F400DFF81890044649F8003042463046394641
:10050400A84754F8090000F0D7FA00BF080000001B
:10051400034A536823F0020353600020704700BF6E
:10052400002004E0084B1A6842F480721A601A68CA
:1005340042F400721A601A6842F480621A60034B33
:10054400034A1A60704700BF003C02403400002098
:100554000024F400014B0360002070470C3C0008A9
:1005640008B50348034A0021121A02F077FB08BDBC
:1005740070000020980300200748084A084908B57D
:10058400121A02F06DFB0748074A0849BDE8084003
:10059400121A02F065BB00BF0000002070000020AA
:1005A4003C43000800000020000000203C430008F9
:1005B40038B505460C4699B1D1E901230F480968BD
:1005C40002F03EFBD4E90423E1680D4802F038FB55
:1005D400E1690C4802F034FBA1690B4802F030FBDE
:1005E400012D05D1EFF305810848103902F028FBED
:1005F40021462846BDE8384001F048BBFA3D0008D2
:100604002A3E00085A3E00086A3E0008993E000847
:1006140030BFFFF7FDBF00BF2DE9F0410B4EDFF8FF
:10062400308006EB0807CC1B0546324609492046B4
:1006340002F099FFA01942460021083C02F0A1FFF4
:100644002C6707F10800BDE8F08100BF000000003E
:10065400040000000C3C0008054B5A699B689A4250
:100664001FBF044A536843F080535360704700BF70
:100674006803002000ED00E02DE9F843324D804688
:1006840032488946174602F0DBFAAB6ADE0622D509
:100694002F4802F0D5FA1124AB6A1D0703D52D4863
:1006A40002F0CEFA1224284DAB6A980715D52A48D1
:1006B40002F0C6FA6E6BAB6A190642D5274831467A
:1006C40002F0BEFAB9F1000F03D0AB6A23F0800345
:1006D400AB62132403E01024DEE76FF015061A4D15
:1006E400AB6ADA0703D51E4802F0AAFA1424AB6AEF
:1006F4009B0603D51B4802F0A3FA1524124B9A6AF1
:10070400D50602D49A6A90070AD55B68190507D5FD
:100714004146304600F094FA10B180F3098802246F
:10072400094B9A6A920642BF5A6A22F400525A62EC
:100734009A6A42F0FF029A6200233B702046BDE8A9
:10074400F8836FF01506C4E700ED00E0AD3E000845
:10075400C43E0008F83E00080C3F0008253F00088E
:100764003C3F00085C3F000810B51D4C1D4802F0DA
:1007740067FAA36A990130D51B4802F061FA1E207A
:10078400A36ADA0103D5194802F05AFA1F20144C5F
:10079400A36A1B0303D5164802F052FA2120A36A68
:1007A400590303D5134802F04BFA22200C4CA36AD8
:1007B4009A0303D5104802F043FA2320A36ADB030B
:1007C40003D50E4802F03CFA2420054A936A6FEAE6
:1007D40003436FEA1343936210BD1D20D0E700BFAB
:1007E40000ED00E08C3F0008A53F0008B93F000879
:1007F400D43F0008F33F00081940000834400008C3
:1008040070B5244C064624480D4602F019FAA36A32
:10081400D90435D5214802F013FA1720A36A1A0522
:1008240003D51F4802F00CFA18201A4CA36A9B0542
:100834000FD51C4802F004FAA16BA36A180407D56B
:10084400194802F0FDF91EB1A36A23F40043A36220
:100854001920104CA36A590503D5144802F0F0F985
:100864001A20A36ADA050DD5114802F0E9F91B2014
:10087400084A936A43F47F43936200232B7070BD4C
:100884001620CBE7A36A9B04F2D50A4802F0D8F9F4
:100894001C20EDE700ED00E0604000087740000810
:1008A400F83E000889400008A3400008B940000849
:1008B400D54000085C3F00082DE9F0415B4B5F68C0
:1008C4008AB00446C7F30806002585F31188BFF3F0
:1008D4006F8F02F07F43B3F17F4F06D102F00C0318
:1008E400082B13D1524802F0ABF900252C464FF0E7
:1008F4000008F31E8DF80780092B00F28680DFE8DC
:1009040003F00A7A7E7684848484848210074CBF40
:100914000C460125EBE74748444E02F091F98DF867
:100924000780F36A9A0704D5434802F089F9002343
:1009340030E0F36A002B01DA4048F6E7F36A5B0023
:10094400F5D53F4802F07CF97369A26943F48073DA
:100954007361BFF34F8FBFF36F8F736932F8022C4B
:1009640023F480737361BFF34F8FBFF36F8F4DF622
:1009740002739A4209D0B36ADBB253B30DF1070292
:1009840001212046FFF778FE33E021682D4802F06C
:1009940057F923689DF80720C2B902AE04F1200775
:1009A40020686168324603C20834BC421646F7D157
:1009B400099AB5B3C2F3080121B96FEA52226FEA6A
:1009C4004222099202A91846FFF7F2FD0AB0BDE8D7
:1009D400F081B36A13F47F4F05D00DF107010120B4
:1009E400FFF70EFF05E0B36AB3F5803F9FD3FFF72F
:1009F400BBFE0346CEE70DF107020021C1E70DF16E
:100A040007010020ECE710488FE7104B104911480C
:100A140017F4F87FA6F1100218BF194602F010F976
:100A240085E722F4FF7222F00102CAE700ED00E03C
:100A34001C41000848410008604100088241000848
:100A440091410008B1410008CE410008034100086B
:100A5400EE400008F3410008044B5A6942F01002CA
:100A64005A615A6922F008025A61704700ED00E0A9
:100A7400EFF30880EFF3098101B57246FFF71CFF1D
:100A840001BD00BF0A4880F30888102080F3118854
:100A940008484FF40461401880F30988EFF3148088
:100AA4000221084380F31488BFF36F8F00F090F89D
:100AB40080110020C0030020084B9B6883420BD1A7
:100AC400EFF3058343B1064B5A6842F080525A60F3
:100AD4005A6A22F400425A6201F0A0BB6803002063
:100AE40000ED00E014498A684FF030001044EFF341
:100AF400098C80E8F01F102080F31288BFF36F8FF9
:100B04000E4F4FF000664A698A603E60106F0C4CCD
:100B14002060506F0023536780F3118804B510469A
:100B240000F0F2F8BDE8044002F1300090E8F01F54
:100B34008CF30988704700006803002004ED00E08E
:100B4400200200201EF0040F0CBFEFF30880EFF327
:100B54000980816911F8021C0229FFD001B572468F
:100B640002F080F801BD00BF40B2002807DB044A50
:100B74004109012300F01F00834042F821307047EF
:100B840000E100E040B20028A8BF00F1604001F19C
:100B94000101B8BF064B4FEA0111ACBF00F561403B
:100BA40000F00F00C9B2B4BF195480F800137047A5
:100BB40014ED00E0044B054A23F07F039360BFF378
:100BC4004F8FBFF36F8F70470000000800ED00E007
:100BD40008B5FFF7EFFF0B4AD2F8883023F470030F
:100BE400C2F88830EFF3148323F0040383F31488EA
:100BF400BFF36F8FFFF7B4FCFFF7BEFC00F05AF8A9
:100C040001F00CF900ED00E042F8203C009B42F8B2
:100C14001C3C0A49019B42F8183C029B42F8143CD4
:100C240021F001014FF0807342F8043C42F8081CA3
:100C34000023203A02654367704700BFE1040008BF
:100C4400094A0346906870B113F1160F006E05D07F
:100C5400A0F140029A4205D8834203D2814228BFC0
:100C640000207047002070476803002008B515462F
:100C74000B4A0C4B9060026F1A600E4600F044F869
:100C84002C4686F309880020034B98472046002110
:100C940000220023014C20478D2C0008E1040008A9
:100CA4006803002020020020014B10221A617047C3
:100CB40000ED00E0044800231021C2180133612B29
:100CC40082F80013F9D1704700E100E008B5EFF3B2
:100CD4000583064A103B02EBC30152F8330049680E
:100CE4008847BDE80840FFF7B7BC00BFA03800083C
:100CF400024B034A0348012100F076B8008000202B
:100D0400000000200C3C0008026E054B403A1A60BB
:100D1400044A4021C3E901121846012100F06EB8CB
:100D24002402002000000B15084AC2F898000B6842
:100D340023F01F03034343F01003C2F89C308B6875
:100D440043F00103C2F8A030704700BF00ED00E09B
:100D54002DE9F043DFF8608085B00E461F46044657
:100D64004FF00009B14523DA6068D8B13FB1411EA4
:100D740008421BD11F2819D92368194216D12368A8
:100D8400019301F095FFA36803430393D8F89050AF
:100D9400C5F30725D0B2013DA84207D801A9FFF742
:100DA400C3FF421C09F101090C34DBE76FF01502A3
:100DB400104605B0BDE8F08300ED00E0044B0522C9
:100DC400C3F89420BFF34F8FBFF36F8F704700BFFA
:100DD40000ED00E0BFF35F8F024B0022C3F89420C4
:100DE400704700BF00ED00E010B5034C01232278EA
:100DF400FFF7AEFF207010BD9403002008B50B4A26
:100E040000231278FFF7A4FF10F1160F07D0084A49
:100E14000021D2F89030C3F30723984200DB08BDC9
:100E2400C2F89800C2F8A0100130F2E79403002041
:100E340000ED00E02DE9F043534B544CD3F89030CF
:100E44002568C3F307239D4285B000F29A80FFF71B
:100E5400C1FF00200C2685421AD14D4C4D4F257000
:100E64006846FFF777FBDFF82081DFF82C91064610
:100E74000025AE4213D1237843490020D1F89020B5
:100E8400C2F30722934276DBFFF798FF002042E08B
:100E9400616806FB0011FFF747FF0130DBE70098AC
:100EA40000EB05114FEA051CCB683B40B3F5000F7E
:100EB40048D00AD8B3F5001F30D0B3F5800F36D030
:100EC400B3F5801F10D00135D3E7B3F1807F42D052
:100ED400B3F1007FF7D150F80C3088684A6801F00C
:100EE400E7FE40F4802009E050F80C3088684A6836
:100EF40001F0DEFE40F0885040F43020CDE90123BB
:100F04000390D8F890302078C3F30723013B98422C
:100F14002AD96FF0150005B0BDE8F08350F80C3005
:100F240088684A6801F0C4FE40EA0900E6E750F820
:100F34000C3088684A6801F0BBFE40F0C06040F4A1
:100F44000030DBE750F80C3088684A6801F0B0FEE6
:100F540040F08270D2E750F80C3088684A6801F09B
:100F6400A7FE40F08870C9E701A9FFF7DDFE2378EA
:100F740001332370A7E7C1F89830C1F8A00001330A
:100F84007CE74FF0FF30C6E700ED00E0183C0008B6
:100F9400940300200000F0FF0000081108B5024B84
:100FA4001B689847002008BD30020020034B044A08
:100FB4001860937843F00203937070473002002066
:100FC4000400002008B50649064821F00701C1F1D4
:100FD400005202F5004201F0F4FD002008BD00BFFC
:100FE400C711002034020020044B184400230133AD
:100FF400994200F8012BFADC704700BF440000203E
:101004002DE9F041104F054600264FF001086B789A
:10101400F4B2A34201D8BDE8F0812B781C442046E9
:1010240000F0C0F868B1204600F0CCF857F834302E
:101034003BB107EBC40204F01F04516808FA04F042
:1010440098470136E3E700BF40020020034660B141
:10105400B0FA80F2C2F11F02D2B205498856054A9D
:1010640011680B431360FFF77FBDFF22F5E700BF54
:1010740044000020003C0140024A136823EA0003B4
:1010840013607047003C0140032921D8DFE801F0D8
:10109400020C10190F4B9A6822EA00029A60DA686F
:1010A40022EA0002DA6070470A4B9A680243F5E7C5
:1010B400084BDA680243DA609A6822EA00029A600E
:1010C4007047044B9A6802439A60DA681043D86008
:1010D400704700BF003C014030B5B0B1B0FA80F3B6
:1010E400C3F11F03DBB20B4850F833408C4204D1E8
:1010F40000EBC3056D68954205D044B940F8331040
:1011040000EBC3004260002030BDFF23EBE76FF02B
:101114000F00F9E74002002060B1B0FA80F3C3F198
:101124001F03DBB2044A002142F8331002EBC3026E
:1011340051607047FF23F5E74002002000F00302EE
:10114400043292000F23934043EA9000C3B2023367
:10115400054A52F82320030C02EA104093FAA3F341
:10116400B3FA83F3D84070470038014013B50C4CF0
:10117400204602F053F960B14FF480434422CDE994
:101184000023A3681B683BB169462046984702B018
:1011940010BD6FF01200FAE76FF05700F7E700BFD9
:1011A400003700081F2809D8012303FA00F0044B74
:1011B4005B6998430CBF01200020704700207047F2
:1011C400003C014000F01F021F284FF0010303FA06
:1011D40002F39DBF024A002053616FF0150070476F
:1011E400003C014038B50888314BC0F30B000D2892
:1011F4001B680D4614462CD810B96FF0850027E003
:1012040001380C28F9D801A252F820F0491200083C
:10121400A312000845120008A31200089F12000838
:101224007F1200088F120008FF110008FF11000848
:10123400FF110008FF1100084912000849120008B4
:101244004FF4FA4323602968B1F5805F29D2002066
:1012540038BD44280ED82F28CFD900F57D61C1F3BD
:101264000B0101228A4013490A42EBD14028C4D120
:101274005B08E7E7A828E5D0BFE700F0BFF84FF424
:10128400C072C30853439B08DCE700F0B7F84FF47F
:10129400C072C3085343DB08D4E7074BD2E70023EB
:1012A400D0E7C1F313310131B3FBF1F32360CEE78F
:1012B400340000201101100000127A0070B54A4C6D
:1012C4004A4D00F0BDF8204601F0FFFD00F02AFC75
:1012D400AB68474AC3F30313D35C20FA03F61378CD
:1012E4001C41A64202D2204600F04AFC2B6843F47B
:1012F40080232B602B6843F480332B603B4B1A68AC
:101304009103FCD55A6F42F001025A675A6F920753
:10131400FCD59A6802F00C02082A17D11A689507BE
:1013240007D41A6842F001021A60304A1368980719
:10133400FCD52E4B9A6822F003029A609A6812F048
:101344000C0FFBD19A6822F0F0029A60274D2B68AB
:1013540023F080732B602B689901FCD4254AD2F8C2
:10136400043823F4403343F48033C2F80438D2F809
:10137400043823F0706343F00063C2F8043800F0CB
:1013840041F82B6843F080732B60184B1A68920164
:10139400FCD59A6822F0F0029A609A6822F003025F
:1013A40042F002029A609A6802F00C02082AFAD10A
:1013B400A64202D3204600F0E3FB0F4B0A4A1A6010
:1013C4000A4B9A6822F4E05242F480529A609A6876
:1013D40022F460429A60D3F88C2022F08072C3F821
:1013E4008C20002070BD00BF00D8B8050038024032
:1013F400F0420008003002403400002000487047EA
:1014040000127A00094B0A495A681140094A0A43F2
:101414005A605A68084922F4403242F480325A60D1
:101424005A681140054A0A435A607047003802401E
:101434000080BFFF086040000080BFF008604008E3
:10144400064B1A6C42F080521A641B6C82B003F093
:1014540080530193019B02B0704700BF00380240E3
:1014640008B5074801F0DAFF38B10648FFF79EFDDA
:101474000448FFF715F8002008BD6FF01200FBE7E1
:10148400603800088D1400080A2838B5074D044652
:1014940004D1AB680D215B6828469847AB680348C4
:1014A4005B68E1B29847204638BD00BF6038000849
:1014B4002DE9F843D0F80480D0F81090D8F808004B
:1014C40017460D461E4601F051FCB7F5001F0446B1
:1014D40016D12846D8F80840FFF730FE84420CD1D4
:1014E400294601F043FC0446FFF7C6FD2046FFF7FA
:1014F40013FE00212046FFF7C7FD0020BDE8F88356
:10150400B7F5800F20D0B6F1806F19D0B6F1C06F57
:1015140018D0B6F1007F1AD1022610494A46204657
:10152400FFF7DAFDB0B9D8F80810284601F023FC1B
:1015340020463146FFF7A8FD2046FFF787FDDCE78C
:101544000126EAE70326E8E76FF08500D6E76FF0A7
:101554001500D3E76FF00F00D0E700BF4331000858
:1015640038B50369044658600A4D284601F056FF11
:1015740060B1AB6861681B680C3123B12846984799
:1015840000EAE07038BD6FF05700F9E76FF0120021
:10159400F8E700BF003700082DE9F0471E4F044666
:1015A40000EBC1060025B44201D1002014E02068FC
:1015B400C30600F01F0911D4656845F02005C0F387
:1015C400481AC0F34420192823D857F82080B8F1CA
:1015D400000F0DD16FF01200BDE8F087B9F1100FC4
:1015E40004D0B9F1110FEAD16568E8E73025E6E7E0
:1015F400404601F013FF0028ECD04B462A460AF07F
:101604000F01404601F0B1FD002804F10804CADAD4
:10161400E2E76FF01500DFE7D83C0008F8B50C46A8
:10162400036941685D682379012B35D09A1E5642BF
:101634005641B6026279022A9CBF374F37F812C06E
:10164400A27988BF4FF4005C042A28D0003B18BF5D
:1016540001231B03E279012A0A680CBF4FF4407787
:101664000027A542D1681DD121F4B05131430B4369
:10167400D360136923F4405343EA0C0313614368B2
:101684001A68536923F440733B435361296801F09A
:1016940007FE00EAE070F8BD4FF4C066CAE74FF4F5
:1016A4008053D7E701F4C0618E421FBFD16821F493
:1016B400C0613143D160426811680A6902F4405242
:1016C40094451FBF0A6922F4405242EA0C020A619F
:1016D40042681168CA6802F4805293421FBFCA6804
:1016E40022F480521343CB6043681A68536903F4AD
:1016F40040739F421FBF536923F440733B435361BC
:1017040021682B68994205D001F0CAFD0028C2DB8C
:1017140023682B600020BEE7F43D0008F8B5436859
:101724001D6803695F680B790C46012B4979A6791A
:1017340035D102294AD9042E45D04FF4C0624FF462
:1017440080534FF0030C8C453DD1002B77D0002AF9
:1017540014BF03220422B24235D1E37963B1012BD1
:1017640031D1394B9D4207D0A3F54C439D4203D060
:1017740003F550439D4226D1EB6823F40053EB60FC
:101784002146FFF74BFF00281DDBEB6843F40053B1
:10179400EB6094E8030087E80300002015E0022BC7
:1017A40006D102291FD9042E0DD04FF48062C6E75A
:1017B40002290A461FD9042E02D123B90022BEE70A
:1017C40013BB0329C7D06FF08500F8BD1F4A042E50
:1017D40032F811C0F7D04FF4C062033B012BF2D9A9
:1017E4004FF4805319E0194A042E32F811C0EAD09C
:1017F4004FF48062F1E7154A042E32F811C009D182
:10180400002BE0D11A46EBE7033B012BDBD9D5E7EC
:101814000022E2E7002BFBD11A46BCF5805F08D01A
:10182400BCF5405F08D0BCF1000F8AD14FF0010C29
:1018340089E74FF0000C86E74FF0020C83E7002A9B
:1018440014BF0222032286E700100140F43D000881
:10185400F7B50669446805462B48306001F0DEFDA3
:1018640018B96FF0120003B0F0BD3068E168836806
:101874001B68002B42D098470028F4DB206A01AA99
:10188400002101F08AFC0028EDDB019B002219797C
:101894001868FFF781FE0028E5DB6E682B69346861
:1018A4005F68E36823F40053E360706801F0B6FDF9
:1018B4000028D6D0D6E901018368DB6803B19847D4
:1018C40004F10C0353E8003F43F00C0304F10C0152
:1018D40041E80032002AF3D139462846FFF79EFE3C
:1018E40000280EDB337D1BB1636943F00803636199
:1018F400E36843F40053E3600020B4E76FF057005B
:10190400B1E76FF01500AEE70037000810B54FF0EF
:10191400E0230F499C691A6908689B690D4902F420
:10192400803234B993B903464AB90A681044C01ADC
:1019340010BD002B08BF03460AB9A342F5D90A68B3
:1019440002440A604FF0E0221269EEE70446F3E72E
:1019540064030020600300200A4B102283F8232034
:10196400094B4FF416521A60084B002018604FF0D0
:10197400E02342F27F525A6198611A6942F00702E9
:101984001A61704700ED00E064030020600300204A
:10199400684620F007018D4619B5FFF7B7FF114BD4
:1019A4001149D3E900420868001942F10002C3E971
:1019B40000020E4A00230B60D2E900414FF4165393
:1019C400001BB0FBF3F043431B1941F10001C2E9D2
:1019D400003100F007FEFEF73FFEBDE819408546E2
:1019E400704700BF780000206003002070000020D2
:1019F4002DE9F041DFF8DC8099B1421C0BD14FF0A6
:101A0400E022136923F0010313614FF07F43C8F808
:101A14000030BDE8F081D8F80060012807DC002719
:101A24000BE0431CD8F80060F7D140F2D26040F2DA
:101A3400D3639842A8BF1846471EEFF311851023BD
:101A440083F31288BFF36F8FFFF760FF224C4FF0D0
:101A5400E0239969D4E90023801843F10003C4E921
:101A640000031E4B00221A601D4B1A68831A2ED4E1
:101A74004FF4165C0CFB073303F515533F33B3FBEC
:101A8400FCF7131A0CFB0733B3F5806F154A38BF04
:101A94004FF48063934228BF13464FF0E022C8F806
:101AA4000030013B90695361002393618142A1EBB3
:101AB4000003D4E9001238BF9B195B1842F10002FD
:101AC400C4E9003285F31188BFF36F8FA1E74FF4A7
:101AD4008063E2E7640300207800002060030020B4
:101AE4007000002000C3FF0038B5EFF31185102308
:101AF40083F31288BFF36F8F084B1C68084B1B6875
:101B0400E41AFFF703FF85F31188BFF36F8F4FF4D7
:101B140016532044B0FBF3F038BD00BF780000201A
:101B24007000002008B513498B6803F00C03042BE4
:101B34001CD0082B1CD14A684B68496813F48003F5
:101B440014BF0D480D48C1F3881118BF002302F0DB
:101B54003F02A1FB0001FEF733FB064B5B68C3F3B6
:101B6400014301335B00B0FBF3F008BD0248FCE71E
:101B74000248FAE70038024000127A000024F40018
:101B8400002876D03C4B1A6802F44042B2F5404F2C
:101B940020D13A4A904215D8394A904207D91A6856
:101BA40002F44042B2F5004F5CD102201FE0354AF6
:101BB40090421A6802F4404247D9B2F5004F4CD122
:101BC400012014E01A6802F44042B2F5004F3FD1FC
:101BD40003200CE01A6802F44042B2F5004F22D10F
:101BE400274A90423ED8274A90422ED90020224BC1
:101BF4001B68012838BF012003F44043B3F5804F2C
:101C04001FD0214A136823F00703034313601368AA
:101C140003F0070398421CBF136803F00703C01ABC
:101C240018BF012070471B6803F44043B3F5804F8D
:101C34000CD1134B98421AD8124B98424FF0000023
:101C4400DFD9012838BF0120DBE71B680020D8E773
:101C54001B68032003F44043D0E71B68012003F40E
:101C64004043CBE71B68022003F44043C6E702204D
:101C7400C7E70120704700BF00700040804A5D053F
:101C84000090D00380C3C901003C024038B5EFF393
:101C94001185102383F31288BFF36F8F064B9C6862
:101CA40001F0CFFB85F31188BFF36F8F2046BDE8A9
:101CB4003840FEF701BF00BF6803002038B50A4B67
:101CC40053F82040013053F82050A54200D838BDC5
:101CD400606830B1037FDB0701D401F087FB08346F
:101CE400F3E723689847FAE7DC3D000870B52A4B10
:101CF4002A4C2B4D012286B003201A70FFF7DEFF19
:101D040000F0D0FC0420FFF7D9FF2646AE4204F1D0
:101D1400300410D300F008FA204C224EAC4226D3F3
:101D240000F016FA01F01CFC1F4A137B23F0010398
:101D3400137306B070BD54F80C3C059354F8103C72
:101D4400049354F8143C039354F8183C029354F845
:101D54001C3C019354F8203C009354E90A2354E9B1
:101D64000C0100F0C1F854F8303C5E65CDE7D4E9CD
:101D74000A23B3F1FF3F08BFB2F1FF3F05D052EA97
:101D84000301206803D100F01FFA3034C6E731465E
:101D9400183000F097FBF8E795030020A83B0008F3
:101DA400A83B0008DF3400080001002070B50023C0
:101DB40086B00122CDE90423134E144D01930F2262
:101DC400CDE902321249142303FB005506EBC01679
:101DD40004464FF4C07000FB04110E4B00954FF401
:101DE400A072304600F080F8737B0B4AEE6023F05B
:101DF400040373734FF4046304FB033313442C741C
:101E04006B6006B070BD00BF800000206803002036
:101E1400000C00204D340008C0030020BFB5002092
:101E2400FFF74CFF284B83F30888284C284F63693D
:101E340043F4007363610025F02384F82230E577CE
:101E440025766576A57684F82050636A43F4E0230A
:101E54006362FEF701FEFEF727FF4FF0FF33A36234
:101E6400E362FEF7E7FFFEF743FF1A481A4C00F05F
:101E740087F8FEF757FB0120FFF720FF0220FFF74A
:101E84001DFF00F099F9154B15495C61154B05933D
:101E94000123CDE903534FF480623B46CDE901555C
:101EA4000095204600F020F8627B064622F00402EA
:101EB4002046627301F0E5FA2846FFF777FF3A46B9
:101EC40031462046FEF7D2FE000C002000ED00E073
:101ED400F11C00088001002000010020680300209C
:101EE400800D0020004300082DE9F043073285B03F
:101EF40022F007020E461F461099017300F15803A1
:101F04007F32C0E916330446002322F03F02042145
:101F1400836041733F2A0F98A073C4E90633E373C7
:101F240006F14009A2F1400805D883F31188BFF3F4
:101F34006F8F084602DFB51829462046FEF76CFB72
:101F440007300E9B20F00700A066C4E9189802939E
:101F54000D9B01932D1A0C9B00932A463B46314658
:101F64002046FEF751FE00236365044B9B6803B1D2
:101F7400DB6EE366284605B0BDE8F0836803002005
:101F840040F2011383810023C0E91833C366014B77
:101F94009860704768030020094A93686FF00A014B
:101FA4009967084958674B6843F080534B60002396
:101FB40083F31188BFF36F8F9368986F704700BFE6
:101FC4006803002000ED00E070B590F90D20437B1C
:101FD400002A36DBD90634D11B4C63F07F0322463A
:101FE400437352F8183FE169934207D1C0E90021D5
:101FF4000860E06111E09942F8D01B68002BF5D02D
:1020040090F90E5093F90E60B542F4D0AE42F2DD71
:102014005968C0E9003108605860A569954200D04C
:1020240005B9E568A3685A7BD20604D1DA897F2A08
:1020340001D9AA6932B1AB4202D0284600F0BCF9FA
:10204400656170BD6361FCE76803002070B590F9B9
:102054000D20437B002A014604DA03F07F03437317
:1020640001F0FDF94B7B1C4C63F07F0322464B735C
:1020740052F8183FE069934207D1C1E9002001609A
:10208400E16111E09842F8D01B68002BF5D091F97A
:102094000E5093F90E60B542F4D0AE42F2DD5868AA
:1020A400C1E9003001605960A569A368954200D078
:1020B40005B9E5688B4207D05A7BD20604D1DA8988
:1020C4007F2A01D9AA692AB1AB4202D0284600F07E
:1020D40073F92B46636170BD6803002049B9EFF3BF
:1020E400058030B9054B5A699B689A4201D0FFF7C5
:1020F40053BF81F31188BFF36F8F704768030020CB
:10210400034648B9EFF3058232B9064A5169926829
:10211400914201D0FFF740BF83F31188BFF36F8F63
:10212400704700BF68030020EFF31181102383F38D
:102134001288BFF36F8F054B9A68D37B013BD3732F
:1021440081F31188BFF36F8F704700BF68030020CD
:1021540070B5EFF31186102383F31288BFF36F8FEA
:10216400144DAB68DA7B0132DA732A4652F8184F01
:10217400944200D004B9EC685A7BD20604D1DA89BF
:102184007F2A01D9A2692AB1A34202D0204600F0D5
:1021940013F923466B6186F31188BFF36F8FEFF356
:1021A4001180102383F31288BFF36F8FBDE8704052
:1021B400FFF7A6BF68030020024B03F11802C3E92E
:1021C400062270476803002038B50446EFF31185F2
:1021D400102383F31288BFF36F8F437B5B070FD504
:1021E400183001F095F9637B23F0040320466373F0
:1021F400FFF7EAFE29460548BDE83840FFF76EBF01
:1022040085F31188BFF36F8F38BD00BF960300209C
:10221400014B9868704700BF680300202DE9F8431C
:102224000446077BEFF31185102383F31288BFF371
:102234006F8F437B190705D585F31188BFF36F8F23
:10224400BDE8F883D90943F008025DD14273A3685D
:1022540013B1204601F00BF904F1180001F058F90C
:10226400A66D04F15808B04511D04FF0000976B1BD
:10227400304601F0FCF806F1180001F049F9C6F8FF
:1022840078903046FFF7A0FEA66DB045EFD1DFF899
:10229400C080D8F808309C423ED1EFF30589B9F1EB
:1022A400000918BF4FF00109D8F81860294A96426E
:1022B40000D00EB9D8F80C60B34202D0304600F01A
:1022C4007BF82046C8F8146000F0DBFCB9F1000F7D
:1022D40002D02148FFF754FED8F808309C4231D18F
:1022E400EFF3058373BB227BD20718D42846FFF78C
:1022F40053FEFB07A4D5002383F31188BFF36F8F2C
:102304000423184602DF9BE703F07F0343F008032E
:10231400437301F0A4F89AE74FF00009C4E785F38A
:102324001188BFF36F8F83F31188BFF36F8F04237A
:10233400184602DFEFF31180102383F31288BFF3F2
:102344006F8FD4E785F31188BFF36F8FD1E700BF98
:10235400680300208003002080010020044BC01A81
:10236400044BC0105843044B01221A54704700BF59
:1023740000020020ABAAAAAA96030020C3897F2BDF
:1023840012D80A4B1B6863B1094B90F90E201B68E5
:102394009A4209DB437BDB0606D1064BC31A18BFFE
:1023A400012303F0010070470023FAE738000020FE
:1023B4008C0300208000002070B50E4B0E4C1E7C58
:1023C40006EB460304EBC3040546204601F0A0F8DF
:1023D4000A4B002228469A55FFF7D0FF48B1084B14
:1023E40008491A68013A2046D317BDE8704000F046
:1023F40069B870BD68030020000200209603002025
:10240400380000206123000838B5EFF3118510234C
:1024140083F31288BFF36F8F104B114A9C681068C6
:10242400A04206D1FFF7C8FF85F31188BFF36F8F71
:1024340038BD00211B7C11600A4AD35C002BF3D009
:102444002046FFF79BFF0028EED0637BDB0602D11A
:102454002046FFF7FBFD2046E4E700BF68030020A9
:102464008803002096030020024B1868984208BF96
:10247400002070473C000020034B1B680BB9FFF79A
:1024840033BB0020704700BF9003002030B570B10B
:102494000B4B5B6898420AD0036843B1D3E904212B
:1024A400D0E90445121941EB0501C3E90421D0E93F
:1024B400003213605A600023C0E9003330BD00BF0E
:1024C4003C000020B3F1FF3F08BFB2F1FF3F2DE90C
:1024D400F84F0446994615461F467AD08160EFF3BB
:1024E4001188102383F31288BFF36F8FB9F1000FA3
:1024F400DFF8E4A020DBFFF7BFFFDAE900270135AE
:1025040049F100092D1849EBE073C4E90453AD18EF
:10251400064643EB07074FF00109FFF7A5FFDFF875
:10252400BCE0DEF804A00346EBB9C4E900EACAF84B
:102534000040CEF8044028E0DAE900126FF001030D
:102544005B1A4FF0FF3161EB02025B1B62EB090285
:10255400012B72F10001BCBF01230022C0E9043247
:102564004FF00009D9E7D3E9041CD4E904208A42D6
:1025740070EB0C0B24DA891A5A686CEB0000C3E97F
:102584000410C4E9003214605C60FFF76DFF8442FC
:102594000ED1134B1B685BB9B9F1000F02D1FFF7E1
:1025A4006BFF0646304600F09CFF0021FFF720FA3F
:1025B40088F31188BFF36F8F28463946BDE8F88F3A
:1025C400521A60EB0C009A45C4E90420ADD01B6894
:1025D400AAE700252F46EFE7180200203C00002060
:1025E400900300202DE9F047EFF31185102383F3C6
:1025F4001288BFF36F8FDFF8A490DFF8A480C9F8C6
:102604000000FFF731FF00260027D9F80030D8E991
:1026140000ECD91750B1D0E90442A34271EB020A8D
:102624001CDAE41A62EB0102C0E9044213EB0E0364
:102634004FF000044CEB01012046C8E90031C9F811
:10264400004000F04EFF2146FFF7D2F985F31188D0
:10265400BFF36F8FBDE8F047FFF7D6BE14EB0E0251
:102664004CEBE473C0E90467C8E90023FFF70EFFED
:1026740085F31188BFF36F8F83689847EFF3118553
:10268400102383F31288BFF36F8FD9F800301B1B1C
:10269400C9F80030FFF7E8FEB7E700BF9003002059
:1026A40018020020014800F0CBBA00BF054300081F
:1026B4002DE9F04F8DB043680293837815469A074D
:1026C400804640F10D8100240E78002E00F00A812E
:1026D400252E0BD04B1C03930134029B41463046FC
:1026E40098470028C0F2F6800399EDE74E788B1CDA
:1026F400252E0393F0D00027B946BB46BBF11F0F2C
:1027040038D8A6F12003102B0AD8DFE803F02A09F1
:1027140009300909092109090928092D09091F0096
:10272400A6F13003092B33D92A2E37D11BF0400FE1
:1027340055F8043B40F08280002BA7BF4BF0200BE0
:102744009946C3F100094BF0280B01E04BF0010B53
:10275400039B13F8016B0393002ECFD130E04BF0B1
:10276400020B4BF0040BF3E74BF0080BF0E74BF0D4
:10277400100BEDE7BBF17F0F19D8A6F13003092B3D
:10278400D2D81BF0400F03D00A2101FB0737DFE743
:102794000A2101FB09394BF0200BD9E72E2E06D173
:1027A4001BF0400F40F09E804BF0400BD0E76C2EA6
:1027B40031D02BD8682E36D06A2E3CD04C2E3AD04D
:1027C400002F46F02003B8BF2BF04002A3F16501AF
:1027D400BCBF1FFA82FB0027022901D9612B2FD12C
:1027E400073525F00705DFF8ACA2083507271BF0ED
:1027F400080F66D00AEB070B56465E4563D1A4EB7F
:102804000A0A06EB0A02A9EB07096FE1742E9FD0AE
:102814007A2E9DD0D4E71BF0800F18BF4BF4007BB9
:102824004BF0800B94E71BF4807F18BF4BF4007BC4
:102834004BF4807B8CE74BF4207B89E71F4687E7CA
:10284400A6F16301122900F2F080DFE811F0130011
:102854004F00EE00EE00EE00EE004F00EE00EE0042
:10286400EE00EE00EE00FE00E900EE00EE001B00BC
:10287400EE00AF0055F8043B8DF8183001270DF138
:10288400180AB4E755F804AB834BBAF1000F08BF3C
:102894009A461BF0400F14BF39464FF0FF315046A3
:1028A40000F077FE0746A2E7029B414620209847A6
:1028B40000280FDB013EB742F6D34C44A41BB146BB
:1028C40098E74E46F7E716F8010B029B41469847F6
:1028D400002892DA98F8023043F0040388F80230B2
:1028E4004FF0FF3420460DB0BDE8F08F1BF0800F91
:1028F40034D01BF4007F2CD0073525F00705AA46F9
:1029040069685AF8080B2BF010050029ADB237DAC4
:10291400404261EB410145F480650DF1180B0A2337
:102924005A4600F042FEA0EB0B0301936B0662D5FE
:10293400019B25F001019F4289B240F3A180002E42
:1029440000F0998015F0100240F09C80BB460D46C3
:1029540023E0AA465AF8040BC117D4E7AA461BF48D
:10296400807F5AF8041B01D10846F5E71BF4007F69
:1029740015BF48B208B241F3C01141F3C031C2E7F8
:1029840050EA0103C9D11BF0400FC6D0002FC4D1B7
:102994002BF0110295B2BB46019740F2064115EAAD
:1029A40001021CBF0BF1010B00222CE02BF01002E2
:1029B4001FFA82FB0A231BF0800C49D01BF4007120
:1029C4001DBF073525F00705AA46AA461ABF5AF8BF
:1029D400080B69685AF8040B50EA010545D12BF03D
:1029E40016051BF0400FADB242D0002F40D12BF0A2
:1029F400170295B2019715F0100248D0019B002EE2
:102A040042D103F1010B29075AD4EB0706D5D94566
:102A14006FDD0199A9EB0B035F18CB465B4649E0D8
:102A24004BF0100B10237826C5E7782B04D1C6F1A0
:102A3400780343F01003BEE7029B414625209847E4
:102A44000028FFF647AF023447E608230026B2E722
:102A5400AA461BF480715AF8040BBDD01BF4007114
:102A64001ABFC0B2614680B2B6E72BF0060295B237
:102A74000DF1180B54E725F01105ADB2BB468CE7F8
:102A84000D46B8E73B460D4603F1020BBBE7DDF804
:102A940004B082E7344300082D430008CDE9043232
:102AA4004146029B202098470028FFF613AF049B61
:102AB400059A01339945F1DCA4EB0B01CC189B4634
:102AC4000AB3029B4146302098470028FFF602AF24
:102AD4008EB901342744019B391B994224DC1D46DD
:102AE4005DBB019AA9EB0B09224455461446914457
:102AF40035E0019F92E7023441463046029B9847F5
:102B04000028E7DAE6E640F206410D42E2D015F08D
:102B1400020F14BF2B20202015F4806F04F1010450
:102B2400414618BF2D20E9E7029B414630209847D3
:102B3400002804F10104CEDACCE606AB013D41469F
:102B4400585D029B98470028CADAC3E6029B4146B7
:102B540020209847002804F10104FFF6BBAEA9EB3E
:102B64000403002BF2DCBFE5704700EBC100408892
:102B740040087047F8B50346FFF7F7FFB0FA80F056
:102B8400C0F11F0003EB800CCA00DCF81060171DB5
:102B94000C4606328DB256B9012101FA00F0D9680B
:102BA4000143D960CCF81040DD539D52F8BDF100CB
:102BB4000431585AD85303EBC0009E52C5805D526D
:102BC400F4E7043A2DE9F041CC1D114424F0070444
:102BD40021F007010E1BF708B7FA87F2C2F12405AA
:102BE400AD004FF000080735C2F12002ED08046083
:102BF4004146A760C4F80C80920004F1100000F074
:102C0400C0FC6B0043F00103638004EBC5027B1B33
:102C14005900A4F800805180A21924F83550A2F874
:102C24000280A35304EBC70329465A8842F00102E9
:102C34005A802046BDE8F041FFF79CBF0020704752
:102C44000FB407B504A951F8040B0191FDF72EFC4C
:102C540003B05DF804EB04B07047704700F091BC1A
:102C640000F081BC01460068FDF7A2BC08B5FDF781
:102C7400CFFCBDE80840FDF7EFBC00210120FDF7C3
:102C840097BC6FF08500704761B662B680F3118817
:102C9400BFF36F8F704772B6002383F31188BFF3BD
:102CA4006F8FBFF34F8F30BF62B6BFF36F8F704724
:102CB400202809D9B0F1004F08D80138B0FA80F0C3
:102CC400C0F11F0040007047082070473E20704745
:102CD40008B5FEF763F9002008BD08B506220121F6
:102CE4000020FEF781F9002211460620FDF74AFF75
:102CF400012108460722FEF777F900221146072032
:102D0400FDF740FF082201210220FEF76DF90022A1
:102D140011460820FDF736FF092201210320FEF7A2
:102D240063F9002211460920FDF72CFF0A22012134
:102D34000420FEF759F9002211460A20FDF722FF6C
:102D4400052108461722FEF74FF9002211461720E5
:102D5400FDF718FF282206210A20FEF745F9002274
:102D640011462820FDF70EFF002008BD01F01F01C9
:102D740001208840704700F00302043292000F23C0
:102D8400934043EA900010B5C3B29B0003F1804323
:102D940003F59C33020C9C6892FAA2F2B2FA82F216
:102DA40024EA104091400143996010BD0B88C3F39D
:102DB4000B0303F57D62C2F30B02782A82B014D8A8
:102DC40003F1804303F50E3348681A6802431A601E
:102DD4000B88C3F30B0303F1804303F50E33002088
:102DE4001B680193019B02B070476FF08500FAE7FE
:102DF4000B88C3F30B0303F57D62C2F30B02782A3D
:102E04009FBF03F1804303F50E3349681A689DBFE1
:102E14008A4300201A606FF0850070470D2809D896
:102E240043F2EA03C34013F0010F14BF00206FF014
:102E3400850070476FF08500704738B50888C0F387
:102E44000B00FFF7EBFF002822DB4868FF281ED0A9
:102E540082B2C0F3415502F1804202F50E320135CF
:102E64000123AB401468C0F30440013B834024EACF
:102E74000303136049688BB203F1804303F50E33F7
:102E84000A0E1868C1F304418A4002431A60002004
:102E940038BD0888C0F30B0008B500F57D63C3F3A3
:102EA4000B03782B0AD800F1804000F50E304B68F4
:102EB4000268934314BF0120022008BDFFF7AEFF50
:102EC400002814BF01200220F7E7704743685B68BD
:102ED4001B690B600020704743685B685869424077
:102EE4000A4042405A610020704743685B680020F2
:102EF4009961704743685B680904996100207047D1
:102F040043685B685A69514059610020704710B5A5
:102F140003699868F8B1884219D1DC680868986038
:102F2400A14200D1D860002008602AB19A680A60E2
:102F3400DA68996002B9D960002010E0814206D1B4
:102F440008682060D8688142EDD1DC60EBE7044674
:102F540000680028F2D1002AE8D16FF0150010BDF6
:102F6400F0B544680120676888401E46C2F38013A8
:102F740027EA00078B403B43636090FAA0F7B7FA57
:102F840087F7D4F808C04FF0030E7F000EFA07F756
:102F94002CEA070C90FAA0F7B7FA87F7C2F3C1132B
:102FA4007F00BB4043EA0C03A36090FAA0F3B3FA9A
:102FB40083F3E7685B000EFA03F327EA030790FA4A
:102FC400A0F3B3FA83F302F030055B00C2F34122AD
:102FD4009A403A43202DE26016D107292BD890FA63
:102FE400A0F3226A2BB3B3FA83F39B000F2101FAF7
:102FF40003F322EA030290FAA0F3B3FA83F39B00EB
:1030040006FA03F31343236290FAA0F3B3FA83F3AB
:10301400226890FAA0F05B000321B0FA80F02D0939
:1030240001FA03F3400022EA030385401D432560AF
:10303400F0BD2B46D9E7030A616A93FAA3F282B181
:10304400B2FA82F292000F2793FAA3F3B3FA83F34E
:1030540007FA02F29B0021EA02029E4016436662CE
:10306400D2E72A46EEE712F4003CF8B505460C46D2
:1030740013461DD0960714D550075DD55022D906A6
:1030840011D542F4007203F4C061B1F5806F42D0EF
:10309400B1F5C06F19D0B1F5007F18D142F08002AC
:1030A40015E01022EBE79F06EDD542F48062EAE7D3
:1030B400D60305D5D00605D4C2F340129202E2E746
:1030C4003022E0E74FF40072DDE742F4C07213F4FB
:1030D40040372E6908D0306920FA04F1C9075FBF70
:1030E4000121A14001433161BCF1000F06D0180356
:1030F40014D5696801234968A3408B61686800237B
:103104002146FFF72DFF27B9336923FA04F2D207CA
:103114000CD40020F8BD42F48072D8E75903EDD5F1
:103124000121A1402846FFF7E5FEE7E70122A2407E
:1031340023EA02033361ECE76FF08500EAE770B538
:103144000B468968054611B15E680C6801B970BD0B
:103154008A682A4002D04B68304698471CB12368DD
:1031640021461C46F2E72346FAE7F8B51F46044613
:1031740040680E461546FFF7F3FE112F07D10121D3
:103184002B0501FA06F104D563685B689961002098
:10319400F8BD2046FFF7AEFEF9E730B503681360CB
:1031A4000579046804EBC504A34202D36FF001005F
:1031B40030BD5C798C4201D00833F0E70020F7E79A
:1031C4004368C1F34B101B6801F01F01C058012371
:1031D4008B40034214BF0123002313700020704767
:1031E40010B54368C1F34B101A6801F01F018458ED
:1031F40001238B4023438350002010BD10B5436846
:10320400C1F34B14186801F01F01235801228A40AE
:1032140023EA02032350002010BD38B504460D46AE
:10322400FFF7DEFF29462046FFF7E8FF002038BD00
:1032340082B003680193019B43680193019B02B030
:10324400704708B54368186802680368D9070368BB
:10325400C2F3C00248BF42F002029B07036848BFA2
:1032640042F004025907036848BF42F02002DB051C
:1032740042BF6FF4807342F008020360D10701D5A6
:10328400FFF7D6FF930701D5FFF7D2FF510701D50A
:10329400FFF7CEFF930601D5FFF7CAFF104608BD1E
:1032A40037B5436802691C680D4619B96FF01500FB
:1032B40003B030BD1068D9688368DB6803B301AA22
:1032C40098470028F4DBE368019923F400431920AC
:1032D400E360AA00AB0FA1FB0001FCF771FF6422BD
:1032E400B0FBF2F102FB11031B013233B3FBF2F327
:1032F40003EB01130F2BD9D99BB2A3600020D7E7AE
:103304006FF05700D4E710B543681B6810201A68A3
:103314001206FCD5EFF3118280F31288BFF36F8F8E
:103324001C68240604D482F31188BFF36F8FEEE780
:10333400596082F31188BFF36F8F10BD08B54368DD
:10334400186803681A0701D5FFF772FF03689B0624
:1033540043BF43680B7000204FF0FF3008BD036982
:103364005B681B680B6043681B68DB6803F4C0631D
:10337400B3F5806F2FD0A3F5C06CDCF1000343EBF1
:103384000C030B7143681B681B6903F44053B3F5CA
:10339400805F22D0B3F5405F21D0002B0CBF012306
:1033A40003234B7143681B68DA68DB68D20403F4B7
:1033B400C06316D5002B14BF032304238B71436809
:1033C4001B685B6903F44073A3F540725342534195
:1033D400CB71002070470223D3E70023E1E70223E7
:1033E400DFE7002B14BF02230323E7E710B543698B
:1033F40004463BB90020E268537843F0010353705C
:10340400404210BD98470028F4D00028B8BF40427D
:10341400E368FF28A8BFFF201870ECE740B1C36839
:10342400587810F001001EBF1878B0FA80F04009F7
:103434007047EFF31183102383F31288BFF36F8F68
:10344400FEE708B5FFF7F5FF08B51024EFF3118385
:1034540084F31288BFF36F8FFFF71DFCF6E7D0E902
:10346400003213605A600023C0E90033704708B586
:10347400FFF7F5FF437B23F00203437300238360CC
:1034840008BD10B5EFF31184102383F31288BFF342
:103494006F8FFEF799FD84F31188BFF36F8F10BD12
:1034A40010B50146EFF31184102383F31288BFF3A0
:1034B4006F8F437B13F0280F0AD183680BB1FFF79A
:1034C400D6FF4B7B23F004034B730846FEF77CFDC9
:1034D40084F31188BFF36F8F10BD01211838FFF7F3
:1034E400DFBF08B50246FEF7BFFF70B1D0E9043173
:1034F4009B1A61EBE272B3F1004F72F1000104DA3E
:10350400002AACBF1846002008BD6FF00040FBE75E
:1035140038B50246EFF31185102383F31288BFF305
:103524006F8F0368CBB1FEF79FFF04461046FEF78A
:10353400ADFF00224FF000438442C0E9042306D1CA
:10354400FEF79AFFFFF7CDFF0021FEF751FA0020A6
:1035540085F31188BFF36F8F38BD6FF01500F7E75F
:1035640000BF002070470A44914200F1FF3300D1AC
:10357400704710B511F8014B03F8014F9142F9D18E
:1035840010BD02440346934200D1704703F8011B67
:10359400F9E710B5024601448A42134603D01C7869
:1035A4000132002CF8D1181A10BDF0B5C3F1370759
:1035B4000446FFB203F01F031046082BE6B233D0D3
:1035C400102B3ED06508A40844EA817445EAC1750D
:1035D4002D194FEA910242EB5102290941EA027185
:1035E4006D1842EB1212290A41EA02616D1842EB8E
:1035F4001222290C41EA02416D1842EB1242AD1825
:1036040042F10002EC0844EA4274D10804EB84025B
:10361400A6EB4205EDB2092D0CD90134A5F10A053A
:1036240041F10001EDB212E0E40844EA417406F00D
:103634000705C908303554EA010200F8015BBCD122
:10364400F0BD240944EA017406F00F050909092DA7
:1036540084BFED19EDB2EDE7014800687047000042
:043664002002002020
:0836680090CBFF7F0100000080
:1036700000000000003700081505000800000000E9
:10368000000000002037000800000000003800089B
:10369000000000004038000800000000403700082B
:1036A000000000002038000800000000E03700089B
:1036B00000000000C037000800000000A03700082C
:1036C000000000008037000800000000603700089C
:1036D000DF2C000800000000000000006038000837
:1036E0000000000080380008651400080000000099
:1036F0005D19000800000000C90F0008000000006C
:103700004242000800000000DC3B00085600002098
:1037100000000000C11200080000000000000000CE
:10372000BF420008403D0008CC3B00086800002074
:103730000000000000000000000000000000000089
:103740002442000800000000000000005400002097
:1037500000000000711100080000000000000000DF
:103760004F420008383C0008A83B000858000020E1
:10377000C0020020651500080000000000000000E5
:103780005D4200084C3C0008A83B00085A0000209D
:10379000D4020020651500080000000000000000B1
:1037A0006B420008603C0008A83B00085C00002059
:1037B000E80200206515000800000000000000007D
:1037C00079420008743C0008A83B00085E00002015
:1037D000FC02002065150008000000000000000049
:1037E00087420008883C0008A83B000860000020D1
:1037F0001003002065150008000000000000000014
:10380000954200089C3C0008A83B0008620000208C
:1038100024030020651500080000000000000000DF
:10382000A3420008B03C0008A83B00086400002048
:1038300038030020651500080000000000000000AB
:10384000B1420008C43C0008A83B00086600002004
:103850004C03002065150008000000000000000077
:10386000D0420008443D0008F83B00086A000020F0
:10387000140000205518000800000000000000009F
:10388000E0420008903D0008F83B00086C00002072
:10389000240000205518000800000000000000006F
:1038A000000000007F2C0008000000007F2C0008B2
:1038B000000000007F2C0008000000007F2C0008A2
:1038C000000000007F2C0008000000007F2C000892
:1038D00022420008051000082042000805100008D8
:1038E0001E420008051000081C42000805100008D0
:1038F0001A42000805100008000000007F2C000894
:10390000000000007F2C0008000000007F2C000851
:10391000000000007F2C0008000000007F2C000841
:10392000000000007F2C0008000000007F2C000831
:10393000000000007F2C0008000000007F2C000821
:10394000000000007F2C0008000000007F2C000811
:10395000000000007F2C0008184200080510000835
:10396000000000007F2C0008000000007F2C0008F1
:10397000000000007F2C0008000000007F2C0008E1
:10398000000000007F2C0008000000007F2C0008D1
:10399000000000007F2C0008000000007F2C0008C1
:1039A000000000007F2C0008000000007F2C0008B1
:1039B000000000007F2C0008000000007F2C0008A1
:1039C000000000007F2C0008000000007F2C000891
:1039D000000000007F2C0008000000007F2C000881
:1039E0001642000805100008000000007F2C0008A7
:1039F000000000007F2C0008000000007F2C000861
:103A0000000000007F2C0008000000007F2C000850
:103A1000000000007F2C0008000000007F2C000840
:103A2000000000007F2C0008000000007F2C000830
:103A3000000000007F2C0008000000007F2C000820
:103A4000000000007F2C0008000000007F2C000810
:103A5000000000007F2C0008000000007F2C000800
:103A6000000000007F2C0008000000007F2C0008F0
:103A7000000000007F2C0008000000007F2C0008E0
:103A8000000000007F2C0008000000007F2C0008D0
:103A9000000000007F2C0008000000007F2C0008C0
:103AA000000000007F2C0008000000007F2C0008B0
:103AB000000000007F2C0008000000007F2C0008A0
:103AC000000000007F2C0008000000007F2C000890
:103AD000000000007F2C0008000000007F2C000880
:103AE000000000007F2C0008000000007F2C000870
:103AF000000000007F2C0008000000007F2C000860
:103B0000000000007F2C0008000000007F2C00084F
:103B1000000000007F2C0008000000007F2C00083F
:103B2000000000007F2C0008000000007F2C00082F
:103B3000000000007F2C0008000000007F2C00081F
:103B4000000000007F2C0008000000007F2C00080F
:103B5000000000007F2C0008000000007F2C0008FF
:103B6000000000007F2C0008000000007F2C0008EF
:103B7000000000007F2C0008000000007F2C0008DF
:103B8000000000007F2C0008000000007F2C0008CF
:103B9000000000007F2C0008000000007F2C0008BF
:083BA000000000007F2C00086A
:103BA8006B300008D12E0008DD2E0008EF2E00082B
:103BB800F92E0008052F0008B5140008132F000877
:043BC80000000000F9
:103BCC00C5310008E5310008013200081F32000839
:103BDC00B12D0008F52D000800000000E9110008C7
:0C3BEC00972E0008000000003F2E00088B
:103BF800413300080B33000847320008211700083A
:043C0800633300081A
:103C0C00000000200000000000000B060200000075
:103C1C00203C0008000000080742000820000206B3
:103C2C00000000200F4200081C000B11FFFF0000D9
:103C3C00001C024007000000300000008000000063
:103C4C00FFFF0000001802400600000030000000DA
:103C5C0040000000FFFF00000014024005000000BF
:103C6C003000000020000000FFFF000000100240A8
:103C7C00040000003000000010000000FFFF0000F6
:103C8C00000C02400300000030000000080000009F
:103C9C00FFFF00000008024002000000300000009E
:103CAC0004000000FFFF00000004024001000000BF
:103CBC003000000002000000FFFF00000000024086
:103CCC000000000030000000010000004038000837
:103CDC002038000800380008E0370008C03700081A
:103CEC00A03700088037000860370008000000008B
:103CFC0000000000000000000000000000000000B8
:103D0C0000000000000000000000000000000000A7
:103D1C000000000000000000000000000000000097
:103D2C000000000000000000000000000000000087
:103D3C00000000000038024000440040203700081A
:103D4C0011040000683D00080100000000000000A4
:103D5C000000000000000000703D00084000000062
:103D6C0000000200783D000801000000803D0008C2
:103D7C000200000047000000000200006700000085
:103D8C0000000000001001402037000884040000EF
:103D9C00B43D00080100000000000000000000001D
:103DAC0000000000BC3D00084400000010000000B2
:103DBC00C43D000801000000CC3D000802000000DA
:103DCC00C702000000020000E70200000000000033
:103DDC007036000870360008F0360008F836000817
:103DEC000037000800370008001000000030723067
:103DFC002F61313A202030782530387820207231EC
:103E0C002F61323A202030782530387820207232D9
:103E1C002F61333A20203078253038780A007233FD
:103E2C002F61343A202030782530387820723132A6
:103E3C002F69703A20203078253038782072313450
:103E4C002F6C723A20203078253038780A00207890
:103E5C007073723A20203078253038780A00466129
:103E6C00756C74696E6720696E73747275637469AE
:103E7C006F6E206164647265737320287231352F04
:103E8C007063293A203078253038780A00556E68EE
:103E9C00616E646C6564204952516E3A2025640A47
:103EAC00002A2A2A2A2A204D5055204641554C5486
:103EBC00202A2A2A2A2A0A002020537461636B695B
:103ECC006E67206572726F722028636F6E746578EE
:103EDC00742061726561206D696768742062652069
:103EEC006E6F742076616C6964290A002020556E0F
:103EFC00737461636B696E67206572726F720A000E
:103F0C00202044617461204163636573732056699A
:103F1C006F6C6174696F6E0A0020204D4D464152E2
:103F2C0020416464726573733A20307825780A00F6
:103F3C002020496E737472756374696F6E204163CF
:103F4C00636573732056696F6C6174696F6E0A00D8
:103F5C002020466C6F6174696E672D706F696E748A
:103F6C00206C617A7920737461746520707265734A
:103F7C006572766174696F6E206572726F720A0079
:103F8C002A2A2A2A2A205553414745204641554C76
:103F9C0054202A2A2A2A2A0A002020446976697386
:103FAC00696F6E206279207A65726F0A0020205545
:103FBC006E616C69676E6564206D656D6F727920DA
:103FCC006163636573730A0020204E6F20636F700A
:103FDC00726F636573736F7220696E73747275633D
:103FEC0074696F6E730A002020496C6C6567616C94
:103FFC00206C6F6164206F66204558435F524554B6
:10400C0055524E20696E746F2050430A002020498F
:10401C006C6C6567616C20757365206F66207468C5
:10402C006520455053520A002020417474656D7010
:10403C007420746F206578656375746520756E6483
:10404C006566696E656420696E73747275637469F4
:10405C006F6E0A002A2A2A2A2A20425553204641EA
:10406C00554C54202A2A2A2A2A0A002020537461EB
:10407C00636B696E67206572726F720A0020205044
:10408C007265636973652064617461206275732065
:10409C006572726F720A00202042464152204164C0
:1040AC0064726573733A20307825780A00202049B1
:1040BC006D707265636973652064617461206275EB
:1040CC0073206572726F720A002020496E737472CD
:1040DC00756374696F6E20627573206572726F728E
:1040EC000A00526573657276656420457863657065
:1040FC0074696F6E20280053707572696F75732028
:10410C00696E746572727570742028495251200062
:10411C00535053454C20696E20746872656164205D
:10412C006D6F646520646F6573206E6F7420696EAB
:10413C00646963617465205053500A002A2A2A2A44
:10414C002A2048415244204641554C54202A2A2AC0
:10415C002A2A0A002020427573206661756C74202F
:10416C006F6E20766563746F72207461626C65206B
:10417C00726561640A00202044656275672065766B
:10418C00656E740A0020204661756C74206573633B
:10419C00616C6174696F6E20287365652062656C53
:1041AC006F77290A00415243485F455843455054A4
:1041BC00207769746820726561736F6E2025780AA8
:1041CC000A002A2A2A2A2A204465627567206D6F04
:1041DC006E69746F7220657863657074696F6E2098
:1041EC002A2A2A2A2A0A002A2A2A2A2A202573203D
:1041FC00256429202A2A2A2A2A0A00464C41534897
:10420C005F30005352414D5F30000A060505040132
:10421C000301020101010001696E7465727275700F
:10422C00742D636F6E74726F6C6C657240343030C9
:10423C0031336330300072636340343030323338A2
:10424C003030006770696F40343030323163303059
:10425C00006770696F40343030323138303000676D
:10426C0070696F40343030323134303000677069EF
:10427C006F403430303231303030006770696F400D
:10428C003430303230633030006770696F40343016
:10429C00303230383030006770696F403430303233
:1042AC0030343030006770696F4034303032303029
:1042BC0030300072657365742D636F6E74726F6C41
:1042CC006C65720073657269616C403430303034E7
:1042DC003430300073657269616C40343030313188
:1042EC003030300000000000000000000102030428
:1042FC00060708096D61696E002A2A2A20426F6F31
:10430C0074696E67205A6570687972204F53206209
:10431C0075696C642076342E332E30202A2A2A0AB2
:10432C0000286E756C6C29002A666C6F61742A000B
:10433C00412C000800000000D52C000800000000F3
:10434C0000000000000000001C00002000C2010062
:10435C0000010300000000002C00002000C201003E
:10436C00000103000024F400C80000003C00002001
:10437C003C000020FFFFFFFFFFFFFFFFFFFFFFFFE1
:04438C00FFFFFFFF31
:10439000000000000000000000000000000000001D
:0C43A00000000000000000000000000011
:0443AC0015E015E023
:0400000508000A895C
:00000001FF
